{
  "_format": "hh-sol-artifact-1",
  "contractName": "Web3RSVP",
  "sourceName": "contracts/Web3RSVP.sol",
  "abi": [
    {
      "anonymous": false,
      "inputs": [
        {
          "indexed": false,
          "internalType": "bytes32",
          "name": "eventID",
          "type": "bytes32"
        },
        {
          "indexed": false,
          "internalType": "address",
          "name": "attendeeAddress",
          "type": "address"
        }
      ],
      "name": "ConfirmedAttendee",
      "type": "event"
    },
    {
      "anonymous": false,
      "inputs": [
        {
          "indexed": false,
          "internalType": "bytes32",
          "name": "eventID",
          "type": "bytes32"
        },
        {
          "indexed": false,
          "internalType": "uint256",
          "name": "payout",
          "type": "uint256"
        }
      ],
      "name": "DepositPaidOut",
      "type": "event"
    },
    {
      "anonymous": false,
      "inputs": [
        {
          "indexed": false,
          "internalType": "bytes32",
          "name": "eventID",
          "type": "bytes32"
        },
        {
          "indexed": false,
          "internalType": "address",
          "name": "creatorAddress",
          "type": "address"
        },
        {
          "indexed": false,
          "internalType": "uint256",
          "name": "eventTimestamp",
          "type": "uint256"
        },
        {
          "indexed": false,
          "internalType": "uint256",
          "name": "maxCapacity",
          "type": "uint256"
        },
        {
          "indexed": false,
          "internalType": "uint256",
          "name": "deposit",
          "type": "uint256"
        },
        {
          "indexed": false,
          "internalType": "string",
          "name": "eventDataCID",
          "type": "string"
        }
      ],
      "name": "NewEventCreated",
      "type": "event"
    },
    {
      "anonymous": false,
      "inputs": [
        {
          "indexed": false,
          "internalType": "bytes32",
          "name": "eventID",
          "type": "bytes32"
        },
        {
          "indexed": false,
          "internalType": "address",
          "name": "attendeeAddress",
          "type": "address"
        }
      ],
      "name": "NewRSVP",
      "type": "event"
    },
    {
      "inputs": [
        {
          "internalType": "bytes32",
          "name": "eventId",
          "type": "bytes32"
        }
      ],
      "name": "confirmAllAttendees",
      "outputs": [],
      "stateMutability": "nonpayable",
      "type": "function"
    },
    {
      "inputs": [
        {
          "internalType": "bytes32",
          "name": "eventId",
          "type": "bytes32"
        },
        {
          "internalType": "address",
          "name": "attendee",
          "type": "address"
        }
      ],
      "name": "confirmAttendee",
      "outputs": [],
      "stateMutability": "nonpayable",
      "type": "function"
    },
    {
      "inputs": [
        {
          "internalType": "uint256",
          "name": "eventTimestamp",
          "type": "uint256"
        },
        {
          "internalType": "uint256",
          "name": "deposit",
          "type": "uint256"
        },
        {
          "internalType": "uint256",
          "name": "maxCapacity",
          "type": "uint256"
        },
        {
          "internalType": "string",
          "name": "eventDataCID",
          "type": "string"
        }
      ],
      "name": "createNewEvent",
      "outputs": [],
      "stateMutability": "nonpayable",
      "type": "function"
    },
    {
      "inputs": [
        {
          "internalType": "bytes32",
          "name": "eventId",
          "type": "bytes32"
        }
      ],
      "name": "createNewRSVP",
      "outputs": [],
      "stateMutability": "payable",
      "type": "function"
    },
    {
      "inputs": [
        {
          "internalType": "bytes32",
          "name": "",
          "type": "bytes32"
        }
      ],
      "name": "idToEvent",
      "outputs": [
        {
          "internalType": "bytes32",
          "name": "eventId",
          "type": "bytes32"
        },
        {
          "internalType": "string",
          "name": "eventDataCID",
          "type": "string"
        },
        {
          "internalType": "address",
          "name": "eventOwner",
          "type": "address"
        },
        {
          "internalType": "uint256",
          "name": "eventTimestamp",
          "type": "uint256"
        },
        {
          "internalType": "uint256",
          "name": "deposit",
          "type": "uint256"
        },
        {
          "internalType": "uint256",
          "name": "maxCapacity",
          "type": "uint256"
        },
        {
          "internalType": "bool",
          "name": "paidOut",
          "type": "bool"
        }
      ],
      "stateMutability": "view",
      "type": "function"
    },
    {
      "inputs": [
        {
          "internalType": "bytes32",
          "name": "eventId",
          "type": "bytes32"
        }
      ],
      "name": "withdrawUnclaimedDeposits",
      "outputs": [],
      "stateMutability": "nonpayable",
      "type": "function"
    }
  ],
  "bytecode": "0x608060405234801561001057600080fd5b5061214e806100206000396000f3fe6080604052600436106100545760003560e01c806292098c1461005957806317f0165a146100825780636dcdf2cd1461009e57806379747571146100c7578063909ef021146100f0578063acdbe01214610133575b600080fd5b34801561006557600080fd5b50610080600480360381019061007b9190611360565b61015c565b005b61009c6004803603810190610097919061141e565b610378565b005b3480156100aa57600080fd5b506100c560048036038101906100c091906114a9565b6105df565b005b3480156100d357600080fd5b506100ee60048036038101906100e9919061141e565b610ab4565b005b3480156100fc57600080fd5b506101176004803603810190610112919061141e565b610d66565b60405161012a97969594939291906115ca565b60405180910390f35b34801561013f57600080fd5b5061015a6004803603810190610155919061141e565b610e5d565b005b600033308787876040516020016101779594939291906116a9565b60405160208183030381529060405280519060200120905060608060405180610120016040528084815260200186868080601f016020809104026020016040519081016040528093929190818152602001838380828437600081840152601f19601f8201169050808301925050505050505081526020013373ffffffffffffffffffffffffffffffffffffffff1681526020018981526020018881526020018781526020018381526020018281526020016000151581525060008085815260200190815260200160002060008201518160000155602082015181600101908051906020019061026792919061118e565b5060408201518160020160006101000a81548173ffffffffffffffffffffffffffffffffffffffff021916908373ffffffffffffffffffffffffffffffffffffffff160217905550606082015181600301556080820151816004015560a0820151816005015560c08201518160060190805190602001906102e9929190611214565b5060e0820151816007019080519060200190610306929190611214565b506101008201518160080160006101000a81548160ff0219169083151502179055509050507f2553138c3f9c9008f266dbdbe9fc64f5b71e098d06ef714a190a65a8b9fc6bf383338a898b8a8a6040516103669796959493929190611744565b60405180910390a15050505050505050565b60008060008381526020019081526020016000209050806004015434146103d4576040517f08c379a00000000000000000000000000000000000000000000000000000000081526004016103cb90611820565b60405180910390fd5b806003015442111561041b576040517f08c379a00000000000000000000000000000000000000000000000000000000081526004016104129061188c565b60405180910390fd5b8060060180549050816005015411610468576040517f08c379a000000000000000000000000000000000000000000000000000000000815260040161045f906118f8565b60405180910390fd5b60005b816006018054905081101561053c578160060181815481106104905761048f611918565b5b9060005260206000200160009054906101000a900473ffffffffffffffffffffffffffffffffffffffff1673ffffffffffffffffffffffffffffffffffffffff163373ffffffffffffffffffffffffffffffffffffffff161415610529576040517f08c379a000000000000000000000000000000000000000000000000000000000815260040161052090611993565b60405180910390fd5b8080610534906119e2565b91505061046b565b5080600601339080600181540180825580915050600190039060005260206000200160009091909190916101000a81548173ffffffffffffffffffffffffffffffffffffffff021916908373ffffffffffffffffffffffffffffffffffffffff1602179055507fb79f4240bbdd272d98e02a5db7f0cf156e5fc000961c517670a26eeeec63ed9082336040516105d3929190611a2b565b60405180910390a15050565b600080600084815260200190815260200160002090508060020160009054906101000a900473ffffffffffffffffffffffffffffffffffffffff1673ffffffffffffffffffffffffffffffffffffffff163373ffffffffffffffffffffffffffffffffffffffff1614610687576040517f08c379a000000000000000000000000000000000000000000000000000000000815260040161067e90611aa0565b60405180910390fd5b6000805b82600601805490508160ff16101561076e578373ffffffffffffffffffffffffffffffffffffffff16836006018260ff16815481106106cd576106cc611918565b5b9060005260206000200160009054906101000a900473ffffffffffffffffffffffffffffffffffffffff1673ffffffffffffffffffffffffffffffffffffffff16141561075b57826006018160ff168154811061072d5761072c611918565b5b9060005260206000200160009054906101000a900473ffffffffffffffffffffffffffffffffffffffff1691505b808061076690611acd565b91505061068b565b508273ffffffffffffffffffffffffffffffffffffffff168173ffffffffffffffffffffffffffffffffffffffff16146107dd576040517f08c379a00000000000000000000000000000000000000000000000000000000081526004016107d490611b43565b60405180910390fd5b60005b82600701805490508160ff1610156108b7578373ffffffffffffffffffffffffffffffffffffffff16836007018260ff168154811061082257610821611918565b5b9060005260206000200160009054906101000a900473ffffffffffffffffffffffffffffffffffffffff1673ffffffffffffffffffffffffffffffffffffffff1614156108a4576040517f08c379a000000000000000000000000000000000000000000000000000000000815260040161089b90611baf565b60405180910390fd5b80806108af90611acd565b9150506107e0565b50600015158260080160009054906101000a900460ff16151514610910576040517f08c379a000000000000000000000000000000000000000000000000000000000815260040161090790611c41565b60405180910390fd5b81600701839080600181540180825580915050600190039060005260206000200160009091909190916101000a81548173ffffffffffffffffffffffffffffffffffffffff021916908373ffffffffffffffffffffffffffffffffffffffff16021790555060008373ffffffffffffffffffffffffffffffffffffffff16836004015460405161099f90611c92565b60006040518083038185875af1925050503d80600081146109dc576040519150601f19603f3d011682016040523d82523d6000602084013e6109e1565b606091505b5050905080610a3457826007018054806109fe576109fd611ca7565b5b6001900381819060005260206000200160006101000a81549073ffffffffffffffffffffffffffffffffffffffff021916905590555b80610a74576040517f08c379a0000000000000000000000000000000000000000000000000000000008152600401610a6b90611d22565b60405180910390fd5b7ff8d1583a733d83bdd3ef5464129d0a95a36d62b382d31c6d0467a61f4264381b8585604051610aa5929190611a2b565b60405180910390a15050505050565b60008060008381526020019081526020016000209050600015158160080160009054906101000a900460ff16151514610b22576040517f08c379a0000000000000000000000000000000000000000000000000000000008152600401610b1990611d8e565b60405180910390fd5b62093a808160030154610b359190611dae565b421015610b77576040517f08c379a0000000000000000000000000000000000000000000000000000000008152600401610b6e90611e50565b60405180910390fd5b8060020160009054906101000a900473ffffffffffffffffffffffffffffffffffffffff1673ffffffffffffffffffffffffffffffffffffffff163373ffffffffffffffffffffffffffffffffffffffff1614610c09576040517f08c379a0000000000000000000000000000000000000000000000000000000008152600401610c0090611ebc565b60405180910390fd5b600081600701805490508260060180549050610c259190611edc565b90506000826004015482610c399190611f10565b905060018360080160006101000a81548160ff02191690831515021790555060003373ffffffffffffffffffffffffffffffffffffffff1682604051610c7e90611c92565b60006040518083038185875af1925050503d8060008114610cbb576040519150601f19603f3d011682016040523d82523d6000602084013e610cc0565b606091505b5050905080610ce75760008460080160006101000a81548160ff0219169083151502179055505b80610d27576040517f08c379a0000000000000000000000000000000000000000000000000000000008152600401610d1e90611fdc565b60405180910390fd5b7e7dfba53513b4e59aa75d28f67148f3a66f301c03ec0e9d1ce51b7903b913098583604051610d57929190611ffc565b60405180910390a15050505050565b6000602052806000526040600020600091509050806000015490806001018054610d8f90612054565b80601f0160208091040260200160405190810160405280929190818152602001828054610dbb90612054565b8015610e085780601f10610ddd57610100808354040283529160200191610e08565b820191906000526020600020905b815481529060010190602001808311610deb57829003601f168201915b5050505050908060020160009054906101000a900473ffffffffffffffffffffffffffffffffffffffff16908060030154908060040154908060050154908060080160009054906101000a900460ff16905087565b60008060008381526020019081526020016000206040518061012001604052908160008201548152602001600182018054610e9790612054565b80601f0160208091040260200160405190810160405280929190818152602001828054610ec390612054565b8015610f105780601f10610ee557610100808354040283529160200191610f10565b820191906000526020600020905b815481529060010190602001808311610ef357829003601f168201915b505050505081526020016002820160009054906101000a900473ffffffffffffffffffffffffffffffffffffffff1673ffffffffffffffffffffffffffffffffffffffff1673ffffffffffffffffffffffffffffffffffffffff1681526020016003820154815260200160048201548152602001600582015481526020016006820180548060200260200160405190810160405280929190818152602001828054801561101257602002820191906000526020600020905b8160009054906101000a900473ffffffffffffffffffffffffffffffffffffffff1673ffffffffffffffffffffffffffffffffffffffff1681526020019060010190808311610fc8575b50505050508152602001600782018054806020026020016040519081016040528092919081815260200182805480156110a057602002820191906000526020600020905b8160009054906101000a900473ffffffffffffffffffffffffffffffffffffffff1673ffffffffffffffffffffffffffffffffffffffff1681526020019060010190808311611056575b505050505081526020016008820160009054906101000a900460ff1615151515815250509050806040015173ffffffffffffffffffffffffffffffffffffffff163373ffffffffffffffffffffffffffffffffffffffff1614611138576040517f08c379a000000000000000000000000000000000000000000000000000000000815260040161112f906120f8565b60405180910390fd5b60005b8160c00151518160ff16101561118957611176838360c001518360ff168151811061116957611168611918565b5b60200260200101516105df565b808061118190611acd565b91505061113b565b505050565b82805461119a90612054565b90600052602060002090601f0160209004810192826111bc5760008555611203565b82601f106111d557805160ff1916838001178555611203565b82800160010185558215611203579182015b828111156112025782518255916020019190600101906111e7565b5b509050611210919061129e565b5090565b82805482825590600052602060002090810192821561128d579160200282015b8281111561128c5782518260006101000a81548173ffffffffffffffffffffffffffffffffffffffff021916908373ffffffffffffffffffffffffffffffffffffffff16021790555091602001919060010190611234565b5b50905061129a919061129e565b5090565b5b808211156112b757600081600090555060010161129f565b5090565b600080fd5b600080fd5b6000819050919050565b6112d8816112c5565b81146112e357600080fd5b50565b6000813590506112f5816112cf565b92915050565b600080fd5b600080fd5b600080fd5b60008083601f8401126113205761131f6112fb565b5b8235905067ffffffffffffffff81111561133d5761133c611300565b5b60208301915083600182028301111561135957611358611305565b5b9250929050565b60008060008060006080868803121561137c5761137b6112bb565b5b600061138a888289016112e6565b955050602061139b888289016112e6565b94505060406113ac888289016112e6565b935050606086013567ffffffffffffffff8111156113cd576113cc6112c0565b5b6113d98882890161130a565b92509250509295509295909350565b6000819050919050565b6113fb816113e8565b811461140657600080fd5b50565b600081359050611418816113f2565b92915050565b600060208284031215611434576114336112bb565b5b600061144284828501611409565b91505092915050565b600073ffffffffffffffffffffffffffffffffffffffff82169050919050565b60006114768261144b565b9050919050565b6114868161146b565b811461149157600080fd5b50565b6000813590506114a38161147d565b92915050565b600080604083850312156114c0576114bf6112bb565b5b60006114ce85828601611409565b92505060206114df85828601611494565b9150509250929050565b6114f2816113e8565b82525050565b600081519050919050565b600082825260208201905092915050565b60005b83811015611532578082015181840152602081019050611517565b83811115611541576000848401525b50505050565b6000601f19601f8301169050919050565b6000611563826114f8565b61156d8185611503565b935061157d818560208601611514565b61158681611547565b840191505092915050565b61159a8161146b565b82525050565b6115a9816112c5565b82525050565b60008115159050919050565b6115c4816115af565b82525050565b600060e0820190506115df600083018a6114e9565b81810360208301526115f18189611558565b90506116006040830188611591565b61160d60608301876115a0565b61161a60808301866115a0565b61162760a08301856115a0565b61163460c08301846115bb565b98975050505050505050565b60008160601b9050919050565b600061165882611640565b9050919050565b600061166a8261164d565b9050919050565b61168261167d8261146b565b61165f565b82525050565b6000819050919050565b6116a361169e826112c5565b611688565b82525050565b60006116b58288611671565b6014820191506116c58287611671565b6014820191506116d58286611692565b6020820191506116e58285611692565b6020820191506116f58284611692565b6020820191508190509695505050505050565b82818337600083830152505050565b60006117238385611503565b9350611730838584611708565b61173983611547565b840190509392505050565b600060c082019050611759600083018a6114e9565b6117666020830189611591565b61177360408301886115a0565b61178060608301876115a0565b61178d60808301866115a0565b81810360a08301526117a0818486611717565b905098975050505050505050565b7f4e4f5420454e4f55474820464f554e4420464f522052535650204445504f534960008201527f5400000000000000000000000000000000000000000000000000000000000000602082015250565b600061180a602183611503565b9150611815826117ae565b604082019050919050565b60006020820190508181036000830152611839816117fd565b9050919050565b7f4556454e5420414c52454144592048415050454e454400000000000000000000600082015250565b6000611876601683611503565b915061188182611840565b602082019050919050565b600060208201905081810360008301526118a581611869565b9050919050565b7f4556454e54204841532052454143484544204d41582043415041434954590000600082015250565b60006118e2601e83611503565b91506118ed826118ac565b602082019050919050565b60006020820190508181036000830152611911816118d5565b9050919050565b7f4e487b7100000000000000000000000000000000000000000000000000000000600052603260045260246000fd5b7f555345522048415320414c524541445920525356506400000000000000000000600082015250565b600061197d601683611503565b915061198882611947565b602082019050919050565b600060208201905081810360008301526119ac81611970565b9050919050565b7f4e487b7100000000000000000000000000000000000000000000000000000000600052601160045260246000fd5b60006119ed826112c5565b91507fffffffffffffffffffffffffffffffffffffffffffffffffffffffffffffffff821415611a2057611a1f6119b3565b5b600182019050919050565b6000604082019050611a4060008301856114e9565b611a4d6020830184611591565b9392505050565b7f4e4f5420415554484f52495a4544000000000000000000000000000000000000600082015250565b6000611a8a600e83611503565b9150611a9582611a54565b602082019050919050565b60006020820190508181036000830152611ab981611a7d565b9050919050565b600060ff82169050919050565b6000611ad882611ac0565b915060ff821415611aec57611aeb6119b3565b5b600182019050919050565b7f4e4f205253565020544f20434f4e4649524d0000000000000000000000000000600082015250565b6000611b2d601283611503565b9150611b3882611af7565b602082019050919050565b60006020820190508181036000830152611b5c81611b20565b9050919050565b7f417474656e6465652068617320616c726561647920636c61696d656400000000600082015250565b6000611b99601c83611503565b9150611ba482611b63565b602082019050919050565b60006020820190508181036000830152611bc881611b8c565b9050919050565b7f4576656e74206f776e657220616c726561647920636c61696d6564206465706f60008201527f7369747300000000000000000000000000000000000000000000000000000000602082015250565b6000611c2b602483611503565b9150611c3682611bcf565b604082019050919050565b60006020820190508181036000830152611c5a81611c1e565b9050919050565b600081905092915050565b50565b6000611c7c600083611c61565b9150611c8782611c6c565b600082019050919050565b6000611c9d82611c6f565b9150819050919050565b7f4e487b7100000000000000000000000000000000000000000000000000000000600052603160045260246000fd5b7f4661696c656420746f2073656e64204574686572000000000000000000000000600082015250565b6000611d0c601483611503565b9150611d1782611cd6565b602082019050919050565b60006020820190508181036000830152611d3b81611cff565b9050919050565b7f414c524541445920504149440000000000000000000000000000000000000000600082015250565b6000611d78600c83611503565b9150611d8382611d42565b602082019050919050565b60006020820190508181036000830152611da781611d6b565b9050919050565b6000611db9826112c5565b9150611dc4836112c5565b9250827fffffffffffffffffffffffffffffffffffffffffffffffffffffffffffffffff03821115611df957611df86119b3565b5b828201905092915050565b7f544f4f204541524c590000000000000000000000000000000000000000000000600082015250565b6000611e3a600983611503565b9150611e4582611e04565b602082019050919050565b60006020820190508181036000830152611e6981611e2d565b9050919050565b7f4d555354204245204556454e54204f574e455200000000000000000000000000600082015250565b6000611ea6601383611503565b9150611eb182611e70565b602082019050919050565b60006020820190508181036000830152611ed581611e99565b9050919050565b6000611ee7826112c5565b9150611ef2836112c5565b925082821015611f0557611f046119b3565b5b828203905092915050565b6000611f1b826112c5565b9150611f26836112c5565b9250817fffffffffffffffffffffffffffffffffffffffffffffffffffffffffffffffff0483118215151615611f5f57611f5e6119b3565b5b828202905092915050565b7f4641494c454420544f2053454e4420455448455220544f204556454e54204f5760008201527f4e45520000000000000000000000000000000000000000000000000000000000602082015250565b6000611fc6602383611503565b9150611fd182611f6a565b604082019050919050565b60006020820190508181036000830152611ff581611fb9565b9050919050565b600060408201905061201160008301856114e9565b61201e60208301846115a0565b9392505050565b7f4e487b7100000000000000000000000000000000000000000000000000000000600052602260045260246000fd5b6000600282049050600182168061206c57607f821691505b602082108114156120805761207f612025565b5b50919050565b7f4e4f5420415554484f52495a454420746f20636f6e6669726d20616c6c20617460008201527f74656e6465657300000000000000000000000000000000000000000000000000602082015250565b60006120e2602783611503565b91506120ed82612086565b604082019050919050565b60006020820190508181036000830152612111816120d5565b905091905056fea2646970667358221220b2f84bb64a53b5792f660c29724d26334fab2f7f38a9c70e0ad17b2b1b5c5ada64736f6c63430008090033",
  "linkReferences": {},
  "deployedLinkReferences": {}
}